{
  "contractName": "insurance",
  "abi": [
    {
      "constant": false,
      "inputs": [
        {
          "internalType": "uint256",
          "name": "_bp",
          "type": "uint256"
        },
        {
          "internalType": "uint256",
          "name": "_pulse",
          "type": "uint256"
        },
        {
          "internalType": "uint256",
          "name": "_bodytemp",
          "type": "uint256"
        },
        {
          "internalType": "uint256",
          "name": "_glucose",
          "type": "uint256"
        }
      ],
      "name": "addFeed",
      "outputs": [],
      "payable": false,
      "stateMutability": "nonpayable",
      "type": "function"
    },
    {
      "constant": true,
      "inputs": [],
      "name": "viewFeed",
      "outputs": [
        {
          "internalType": "uint256[]",
          "name": "",
          "type": "uint256[]"
        },
        {
          "internalType": "uint256[]",
          "name": "",
          "type": "uint256[]"
        },
        {
          "internalType": "uint256[]",
          "name": "",
          "type": "uint256[]"
        },
        {
          "internalType": "uint256[]",
          "name": "",
          "type": "uint256[]"
        }
      ],
      "payable": false,
      "stateMutability": "view",
      "type": "function"
    }
  ],
  "bytecode": "0x608060405234801561001057600080fd5b5061040d806100206000396000f3fe608060405234801561001057600080fd5b50600436106100365760003560e01c8063cba0bcba1461003b578063e8d2a16a14610087575b600080fd5b6100856004803603608081101561005157600080fd5b81019080803590602001909291908035906020019092919080359060200190929190803590602001909291905050506101be565b005b61008f610274565b6040518080602001806020018060200180602001858103855289818151815260200191508051906020019060200280838360005b838110156100de5780820151818401526020810190506100c3565b50505050905001858103845288818151815260200191508051906020019060200280838360005b83811015610120578082015181840152602081019050610105565b50505050905001858103835287818151815260200191508051906020019060200280838360005b83811015610162578082015181840152602081019050610147565b50505050905001858103825286818151815260200191508051906020019060200280838360005b838110156101a4578082015181840152602081019050610189565b505050509050019850505050505050505060405180910390f35b600084908060018154018082558091505090600182039060005260206000200160009091929091909150555060018390806001815401808255809150509060018203906000526020600020016000909192909190915055506002829080600181540180825580915050906001820390600052602060002001600090919290919091505550600381908060018154018082558091505090600182039060005260206000200160009091929091909150555050505050565b6060806060806000600160026003838054806020026020016040519081016040528092919081815260200182805480156102cd57602002820191906000526020600020905b8154815260200190600101908083116102b9575b505050505093508280548060200260200160405190810160405280929190818152602001828054801561031f57602002820191906000526020600020905b81548152602001906001019080831161030b575b505050505092508180548060200260200160405190810160405280929190818152602001828054801561037157602002820191906000526020600020905b81548152602001906001019080831161035d575b50505050509150808054806020026020016040519081016040528092919081815260200182805480156103c357602002820191906000526020600020905b8154815260200190600101908083116103af575b5050505050905093509350935093509091929356fea265627a7a723158203a4ad11858fa5b58f3b946a435c6887ceb58bc024be9b335ea1da4817029a3d464736f6c63430005100032",
  "source": "// SPDX-License-Identifier: MIT\npragma solidity >=0.4.22 <0.9.0;\n\ncontract insurance {\n  \n  uint[] bp;\n  uint[] pulse;\n  uint[] bodytemp;\n  uint[] glucose;\n  \n  function addFeed(uint _bp, uint _pulse, uint _bodytemp, uint _glucose) public {\n\n    bp.push(_bp);\n    pulse.push(_pulse);\n    bodytemp.push(_bodytemp);\n    glucose.push(_glucose);\n  }\n\n  function viewFeed() public view returns(uint[] memory, uint[] memory, uint[] memory, uint[] memory) {\n\n    return(bp,pulse,bodytemp,glucose);\n  }\n}\n",
  "sourcePath": "/Users/maddysravs/insurance-fraud-avoidance-blockchain-healthcare/contracts/insurance.sol",
  "compiler": {
    "name": "solc",
    "version": "0.5.16+commit.9c3226ce.Emscripten.clang"
  },
  "schemaVersion": "3.4.7",
  "updatedAt": "2022-06-28T12:14:24.393Z",
  "networkType": "ethereum",
  "devdoc": {
    "methods": {}
  },
  "userdoc": {
    "methods": {}
  }
}